:100BBD00543A00483A005365742054656D70204DC9
:100BCD00696E005365742054656D70204D61780019
:0D0BDD005365742048756D69204D617800E6
:100CAA00014D00014C000244000002480010024AB3
:0A0CBA00001E024200000246003C4A
:100B9000E4F590120D2F120C88120D17120C88120A
:100BA0000CCB120C88120C881205FF120D43120890
:0D0BB00020120A6E7F0A7E00120C8C80EB72
:040C88007F327E0039
:100C8C00D3EF9400EE940040147D6E7C00ED1D704B
:0D0C9C00011CED4C70F7EF1F70E61E80E3A9
:010CA9002228
:1005FF00E4FF1209CB8F4DEF70030206C824FC6095
:10060F001D146062240460030206C8054CD3E54C38
:10061F009403748094804003E4F54C020D17E54C6D
:10062F0024FE602114602B240260030206C8C3E578
:10063F0049941EE548940040030206C874022549F8
:10064F00F549E48041C3E54B941EE54A9400506997
:10065F008044C3E547943CE5469400505C740A25FA
:10066F0047F547E4804FE54C24FE601F14603324A8
:10067F00027046D3E5499410E5489400403B74FE60
:10068F002549F54974FF3548F54822D3E54B9410B9
:10069F00E54A940040237402254BF54BE4354AF5A7
:1006AF004A22D3E547941EE5469400400C74F62584
:0A06BF0047F54774FF3546F5462263
:100D4300750B00750C00750D427B007A0079440227
:020D530006C9CF
:10082000E54C146053146063146073240360030286
:1008300008B67BFF7A0B79BDE4FD7F01120B25AE74
:1008400044AF457C007D0A120386AA06AB077D02F1
:100850007F01120BEA7BFF7A0B79C0E4FD7F021265
:100860000B25AE42AF437C007D0A120386AA06AB7D
:10087000077D027F02020C3E7BFF7A0B79C37D026B
:100880007F01120B25AB49AA4880247BFF7A0B79A4
:10089000D07D027F01120B25AB4BAA4A80117BFF52
:1008A0007A0B79DD7D027F01120B25AB47AA467DCD
:0708B000077F02120A21225A
:100A6E00C3E5459549E54495485006D295C2968012
:100A7E0015D3E545954BE544954A4006C295D29669
:100A8E008004C295C296D3E5439547E5429546400C
:100A9E0003D29722C3E5439547E54295465002C2DD
:020AAE0097228D
:060CC400014F00014E018A
:1009CB00EF6003754E01E54E603730A20C30A30982
:1009DB0030A40630A00320A1287F0A7E00120C8CC5
:1009EB00E4F54E20A2037F012220A3037F022220E5
:1009FB00A4037F032220A0037F042220A1157F05DF
:100A0B002230A20F30A30C30A40930A00630A10372
:050A1B00754E017F0093
:010A200022B3
:100AEF00E4FE7D80EDD39400748094804017ED5F19
:100AFF006004D2918002C291D290000000C290EDAA
:100B0F00C313FD80DFD291D290A291E43300000095
:050B1F00C290D291FF1D
:010B240022AE
:100B5B00E4FED2917D80EDD394007480948040109C
:100B6B00D290309103ED4206C290EDC313FD80E6A7
:100B7B00EF24FFB39291D290000000C290000000CE
:040B8B00D291AF064E
:010B8F002243
:100CE500D291C29000D29000C29100C29000000043
:090CF500D29000D29100C29022BD
:100CCB00D291C290E4FFEFC39409748094805007D3
:0A0CDB00D290C2900F80EF020CE5EA
:060943008B188A19891AC5
:10094900E4F51FF520120CE5E51E14600704701884
:100959007F0380027F05120AEFEF3395E0FEEF2552
:1009690020F520EE351FF51F900000AF82AE83E41D
:10097900FCFD7BFF7AFFF9F8D312041A4006309187
:1009890003A380E73091080520E5207002051F7F49
:1009990001120B5BAB18AA19A91AEF1203527F01B6
:1009A900120B5BAB18AA19A91A900001EF12036484
:1009B900E4FF120B5BAB1BAA1CA91DEF120352AF7C
:0109C900200D
:0109CA00220A
:0604C2008B188A19891A4B
:1004C800E4F521F520751F80751EC0752554752427
:1004D800E375232575223D7529A27528E775273B05
:1004E8007526B6752D0A752CD7752B23752A3C757C
:1004F80031AC7530C5752FA7752E381204308F357D
:100508008E348D338C32AB1BAA1CA91D1204308F7C
:10051800398E388D378C367F0A7ED77D237C3CAB6D
:1005280039AA38A937A8361200FBE4FBFA792078F3
:10053800C212000A8F418E408D3F8C3EAF35AE34DB
:10054800AD33AC32AB29AA28A927A8261200FBABE9
:1005580035AA34A933A8321200FBC004C005C0066E
:10056800C007AF35AE34AD33AC32AB25AA24A923CE
:10057800A8221200FBD003D002D001D00012000A3A
:10058800AB21AA20A91FA81E12000A8F3D8E3C8D00
:100598003B8C3AE4FFFE7DC87C42AB3DAA3CA93BBC
:1005A800A83A120201600D400BE4F53DF53C753B9D
:1005B800C8753A427FCD7ECC7DCC7C3DAB3DAA3C14
:1005C800A93BA83A120201500C753DCD753CCC757B
:1005D8003BCC753A3DAF41AE40AD3FAC3EAB1BAAFC
:1005E8001CA91D120450AF3DAE3CAD3BAC3AAB1854
:0705F800AA19A91A02045020
:0606C9008B088A09890A72
:1006CF00E4F50EF51B751C00751D0FF51EFB7A006A
:1006DF007914120943EF250EF50E751B00751C00DA
:1006EF00751D0F751E017B007A007910120943EFFB
:1006FF00250EF50E6003020CCBAC10AD11E4120207
:10070F007F8F138E128D118C10AC14AD15E4120265
:10071F007F8F178E168D158C14751B00751C007529
:10072F001D147B007A0079101204C2E4FFFE7D20B5
:10073F007C41AB17AA16A915A8141200FB1202B818
:10074F00AB08AA09A90AEE8FF01203ED7F337E33AF
:10075F007D537CC0AB13AA12A911A81012000A1264
:0E076F0002B8AB0BAA0CA90DEE8FF01203ED31
:01077D002259
:100CFE0020202020202020202020202020202020E6
:090D0E00202020202020202000DC
:100D55007580FFC2A5D2A6C2A7D2A72087F5C2A7D4
:010D6500226B
:100AB0007C007D64AF03AE021203987C007D0A12B5
:100AC0000398ED2430FF120ADF7D0A7C00AF03AEED
:0F0AD000021203987C007D0A120398ED2430FF78
:100ADF00120D55C2A78F80D2A5C2A6D2A7C2A72238
:100D6600120D55C2A78F80C2A5C2A6D2A7C2A722BE
:100B25008B088A09890AEF64017005ED248080032A
:100B3500ED24C0FF120D66AB08AA09A90A120339F4
:100B45006013050AE50A7002050914F9120339FF55
:060B5500120ADF80E2221B
:10077E00EF64017005ED24808003ED24C0FF120D9F
:10078E00667C0E7D10AF03AE021203987C007D0ACC
:10079E00120AD17C0E7D10120ACD7F3A120ADF7C2E
:1007AE000E7D10AF03AE021203987E007F3CCFCDBC
:1007BE00CFCECCCE1203987C007D0A120AD17C0ECD
:1007CE007D10AF03AE021203987E007F3CCFCDCFDB
:1007DE00CECCCE120AD17F3A120ADF7C007D3CAF1E
:1007EE0003AE021203987E007F0ACFCDCFCECCCEC1
:1007FE00120AD1AE02AF037C007D3C1203987E003C
:10080E007F0ACFCDCFCECCCE120398ED2430FF028F
:02081E000ADFEF
:100BEA00EF64017005ED24808003ED24C0FF120D2F
:100BFA0066120AB07F2E120ADFAE02AF03120AD4BF
:0A0C0A007FDF120ADF7F43020ADFDA
:100C3E00EF64017005ED24808003ED24C0FF120DDA
:100C4E0066120AB07F2E120ADFAE02AF03120AD46A
:050C5E007F25020ADF02
:100C1400EF64017005ED24808003ED24C0FF120D04
:100C240066120AB07F2E120ADFAE02AF03120AD494
:0A0C34007F4C120ADF7F78020ADF0E
:100C6300EF64017005ED24808003ED24C0FF120DB5
:100C730066120AB07F2E120ADFAE02AF03120AD445
:050C83007F25020ADFDD
:100A2100EF64017005ED24808003ED24C0FF120DF9
:100A310066D3EB94E7EA940340077C037DE8120A4E
:100A4100CDD3EB9463EA940040057D64120ACBD3C5
:100A5100EB9409EA94004003120AC9AE02AF0312F3
:0D0A61000AD47F20120ADF120ADF020ADF2A
:100D17007BFF7A0C79FEE4FD7F01120B257BFF7ABE
:080D27000C79FE7F02020B258E
:100D2F007F38120D667F0C120D667F06120D667FDF
:040D3F0001020D663A
:10000300020324E86480F8E933E83360110460F004
:10001300ED33EC337009E8FCE9FDEAFEEBFF220463
:1000230060DED3EB9FEA9EE99DE8C2E78CF0C2F75E
:1000330095F0400CE8CCF8E9CDF9EACEFAEBCFFB2A
:100043001202EF85D0F05804700320D5B3E8047092
:10005300075002B2D502032E92D5EC0460F7E4CC2C
:10006300C0E0C398F8603B94186008400DD0E0FBF3
:10007300020306E4FBFAC9FC8028E830E406E4C97D
:10008300FBE4CAFCE830E305E4C9CACBFCE8540747
:100093006010F8C3E913F9EA13FAEB13FBEC13FC52
:1000A300D8F130F52FC3E49CFCEF9BFFEE9AFEEDF5
:1000B30099FDD0E0FBEF4E4D4C701222DB0302039F
:1000C3002BEC2CFCEF33FFEE33FEED33FDED30E78D
:1000D300EB020306EF2BFFEE3AFEED39FDD0E0FB1A
:1000E30050130BBB000302032EED13FDEE13FEEFC3
:0800F30013FFEC13FC020306ED
:1000FB00EC4D6011E8497017ED33EC3304600DE4FF
:10010B00FCFFFEFD22E933E8330470F802032412EE
:10011B0002EF58046009E4CC2481500628500902F0
:10012B00032E28400302032BC0E0EB4A7044B98036
:10013B0006D0E0FB02031AEF4E701CBD8008EBFFEC
:10014B00EAFEE9FD80EBE98DF0A4FEE5F00201E4A7
:10015B00E9CDF9EAFEEBFFEF89F0A4FCE5F0CE89DF
:10016B00F0A42EFFE435F0CD89F0A42DFEE435F09C
:10017B008067EF4E7005BD80D780C3EF8BF0A4ACCA
:10018B00F0EE8BF0A42CFCE435F0F8EF8AF0A42C05
:10019B00E5F038FCE433CB8DF0A42CFCE5F03BF818
:1001AB00EE8AF0A42CFCE5F038F8E433CF89F0A408
:1001BB002CFCE5F038CF3400CE89F0A42FFFE5F00E
:1001CB003EFEE433C98DF0A42EFEE5F039CD8AF066
:1001DB00A42FFFE5F03EFEE43DFD33D0E0FB5007DE
:1001EB000BBB000F02032EEC2CFCEF33FFEE33FEA8
:0601FB00ED33FD020306D6
:1002010074F8CC6480CCC86480C8F58204604FC3A4
:10021100EB9FF5F0EA9E42F0E99D42F0E89C45F043
:10022100603C501DE5825FFFE582D313CB5BCBF4CD
:100231002B5582FB50280ABA002409B900200880F6
:100241001DE5825BFBE582D313CF5FCFF4C3132F90
:100251005582FF50090EBE00050DBD00010CC3EB18
:100261009FF5F0EA9E42F0E99D42F0E89C45F0607E
:0902710007CC4820E701B3EC22A0
:10027A0075F020800E75F010800575F0087D007EFF
:10028A00007F003392D530D50312040CEC334010B2
:10029A00EF33FFEE33FEED33FDEC33FCD5F0ED2208
:0E02AA00E5F0247EA2D513CC92E7CDCEFF2244
:1002B800EDD2E7CD33EC3392D524814006E4FFFE3E
:1002C800FDFC22FCE4CFCECDCC24E0501174FF809D
:1002D800EDC3CC13CCCD13CDCE13CECF13CF04703A
:0702E800F030D5DE02040C2A
:1002EF00E9D2E7C933E833F892D5EDD2E7CD33EC55
:0702FF0033FC5002B2D522CE
:10030600EC30E7100FBF000C0EBE00080DBD000458
:100316000BEB6014A2D5EB13FCED92E7FD2274FF04
:10032600FCFDFEFF22E480F8A2D574FF13FC7D805D
:03033600E480EF71
:030000000208B73C
:0C08B700787FE4F6D8FD75814F0208FE42
:10033900BB010689828A83E0225002E722BBFE02C2
:09034900E32289828A83E49322F5
:10035200BB010689828A83F0225002F722BBFE018A
:02036200F32284
:10036400F8BB010DE58229F582E5833AF583E8F0CF
:10037400225006E92582C8F622BBFE05E92582C87B
:02038400F22263
:10038600EF8DF0A4A8F0CF8CF0A428CE8DF0A42E8B
:02039600FE2245
:10039800BC000BBE0029EF8DF084FFADF022E4CC49
:1003A800F875F008EF2FFFEE33FEEC33FCEE9DEC12
:1003B800984005FCEE9DFE0FD5F0E9E4CEFD22ED58
:1003C800F8F5F0EE8420D21CFEADF075F008EF2FA2
:1003D800FFED33FD4007985006D5F0F222C398FD93
:0503E8000FD5F0EA2230
:1003ED00BB010A89828A83F0E5F0A3F0225006F75B
:0F03FD0009A7F01922BBFE06F3E5F009F3192258
:0E040C00C3E49FFFE49EFEE49DFDE49CFC2201
:10041A00EB9FF5F0EA9E42F0E99D42F0EC6480C859
:06042A0064809845F022F9
:10043000BB010789828A830204765005E9F8020429
:100440006ABBFE05E9F802048289828A8302048E6F
:10045000BB010789828A830204AA5005E9F80204D5
:0A0460009EBBFE05E9F80204B62277
:1008C300020B90E493A3F8E493A34003F68001F2B0
:1008D30008DFF48029E493A3F85407240CC8C33336
:1008E300C4540F4420C8834004F456800146F6DF05
:1008F300E4800B0102040810204080900CAAE47EDF
:10090300019360BCA3FF543F30E509541FFEE493F9
:10091300A360010ECF54C025E060A840B8E493A3C0
:10092300FAE493A3F8E493A3C8C582C8CAC583CAEB
:10093300F0A3C8C582C8CAC583CADFE9DEE780BEA3
:010CCA000029
:0C046A00E6FC08E6FD08E6FE08E6FF22BE
:0C047600E0FCA3E0FDA3E0FEA3E0FF22F9
:0C048200E2FC08E2FD08E2FE08E2FF22B6
:10048E00E493FC740193FD740293FE740393FF22B4
:0C049E00ECF608EDF608EEF608EFF6228A
:0C04AA00ECF0A3EDF0A3EEF0A3EFF022C5
:0C04B600ECF208EDF208EEF208EFF22282
:00000001FF
